:020000040800F2
:1000000060060020450200084D0200084F0200086B
:1000100051020008530200085502000800000000C9
:10002000000000000000000000000000570200086F
:1000300059020008000000005B0200085D02000891
:100040005F0200085F0200085F0200085F0200080C
:100050005F0200085F0200085F0200085F020008FC
:100060005F0200085F0200085F0200085F020008EC
:100070005F0200085F0200085F0200085F020008DC
:100080005F0200085F0200085F0200080000000035
:100090000000000000000000000000000103000854
:1000A0005F0200085F0200085F0200085F020008AC
:1000B0005F0200085F0200085F0200085F0200089C
:1000C0005F0200085F0200085F0200085F0200088C
:1000D0005F0200085F0200085F02000800000000E5
:1000E0005F0200085F0200085F02000800000000D5
:1000F0000000000000000000000000005F02000897
:10010000000000005F0200085F0200085F020008B4
:1001100000000000000000000000000000000000DF
:100120005F0200085F0200085F0200085F0200082B
:100130005F02000800000000000000000000000056
:100140000000000000000000000000005F02000846
:100150005F0200085F0200085F0200085F020008FB
:100160005F0200085F0200080000000000000000BD
:10017000000000000000000000000000000000007F
:10018000000000005F020008000000000000000006
:100190005F02000800F002F800F044F814A696E8A8
:1001A000000CB244B344DA4501D100F03BF8BAE8A0
:1001B0000F000FA696E83000A5EB040504EB060738
:1001C000AAEB0704A7F101074FEA15154FEA34140B
:1001D000A4F10104AC4201D300F024F813F0010FA4
:1001E00018BFFB1A43F0010300F001F8DBE71847E2
:1001F0007C0200008C0200007047000000230024F5
:1002000000250026103A28BF78C1FBD8520728BF26
:1002100030C148BF0B6070471FB500F01AF91FBD11
:1002200010B510BD00F031F81146FFF7F5FF00F0F2
:10023000A5F800F04FF803B4FFF7F2FF03BC00F09D
:1002400057F800000948804709480047FEE7FEE7E5
:10025000FEE7FEE7FEE7FEE7FEE7FEE7FEE7FEE776
:1002600004480549054A064B704700003903000859
:100270009501000860000020600600206002002058
:1002800060020020704770477047754600F02CF8F8
:10029000AE4605006946534620F00700854618B073
:1002A00020B5FFF7DDFFBDE820404FF000064FF01E
:1002B00000074FF000084FF0000BAC46ACE8C00957
:1002C000ACE8C009ACE8C009ACE8C00921F00701FE
:1002D0008D46704710B50446AFF300802046BDE858
:1002E0001040FFF7A8BF0000004870470000002042
:1002F00001491820ABBEFEE726000200704700004F
:1003000043F61440C4F2010000684006002811D5ED
:10031000FFE740F21441C4F20201086820F40070C3
:10032000086040F61401C4F20201086840F48040FD
:100330000860FFE7704700004EF68851CEF20001DA
:10034000086840F4700008607047000081B08DF8C4
:1003500003009DF9030000280ED4FFE79DF9031068
:1003600001F01F02012090404A094EF20011CEF226
:10037000000141F82200FFE701B0704780B582B06C
:100380000020019043F63002C4F20202116841F0ED
:1003900001011160116841F004011160116841F020
:1003A000020111600022C4F202021168116011689A
:1003B00011600C21C4F202010860086840F480500A
:1003C00008600868086040F60001C4F2020108688D
:1003D00040F0805008600868086040F20041C4F2B4
:1003E0000201086840F4802008600868086043F64D
:1003F0004401C4F20201086840F48040086043F6FA
:100400000C01C4F2010100910868086008680860E6
:10041000086808600868086043F60041C4F20101FA
:10042000086840F04000086043F60C41C4F2010146
:10043000086840F0400008601720FFF787FFFFE7DB
:1004400040F21441C4F20201086840F400700860F0
:10045000F6E7F1EE100A4FF6FF71C0F2C03120EA64
:10046000010040F04070E1EE100A70477C04000883
:0C0470000000002060060000FC010008F5
:0400000508000245A8
:00000001FF
