:020000040800F2
:1000000068060020450200084D0200084F02000863
:1000100051020008530200085502000800000000C9
:10002000000000000000000000000000570200086F
:1000300059020008000000005B0200085D02000891
:100040005F0200085F0200085F0200085F0200080C
:100050005F0200085F0200085F0200085F020008FC
:100060005F0200085F0200085F0200085F020008EC
:100070005F0200085F0200085F0200085F020008DC
:100080005F0200085F0200085F0200080000000035
:100090000000000000000000000000005F020008F7
:1000A0005F0200085F0200085F0200085F020008AC
:1000B0005F0200085F0200085F0200085F0200089C
:1000C0005F0200085F0200085F0200085F0200088C
:1000D0005F0200085F0200085F02000800000000E5
:1000E0005F0200085F0200085F02000800000000D5
:1000F0000000000000000000000000005F02000897
:10010000000000005F0200085F0200085F020008B4
:1001100000000000000000000000000000000000DF
:100120005F0200085F0200085F0200085F0200082B
:100130005F02000800000000000000000000000056
:100140000000000000000000000000005F02000846
:100150005F0200085F0200085F0200085F020008FB
:100160005F0200085F0200080000000000000000BD
:10017000000000000000000000000000000000007F
:10018000000000005F020008000000000000000006
:100190005F02000800F002F800F044F814A696E8A8
:1001A000000CB244B344DA4501D100F03BF8BAE8A0
:1001B0000F000FA696E83000A5EB040504EB060738
:1001C000AAEB0704A7F101074FEA15154FEA34140B
:1001D000A4F10104AC4201D300F024F813F0010FA4
:1001E00018BFFB1A43F0010300F001F8DBE71847E2
:1001F00000040000100400007047000000230024E9
:1002000000250026103A28BF78C1FBD8520728BF26
:1002100030C148BF0B6070471FB500F0DCF91FBD4F
:1002200010B510BD00F031F81146FFF7F5FF00F0F2
:1002300071F800F04FF803B4FFF7F2FF03BC00F0D1
:1002400057F800000948804709480047FEE7FEE7E5
:10025000FEE7FEE7FEE7FEE7FEE7FEE7FEE7FEE776
:1002600004480549054A064B704700000103000891
:100270009501000868000020680600206802002040
:1002800068020020704770477047754600F02CF8F0
:10029000AE4605006946534620F00700854618B073
:1002A00020B5FFF7DDFFBDE820404FF000064FF01E
:1002B00000074FF000084FF0000BAC46ACE8C00957
:1002C000ACE8C009ACE8C009ACE8C00921F00701FE
:1002D0008D46704710B50446AFF300802046BDE858
:1002E0001040FFF7A8BF0000004870470000002042
:1002F00001491820ABBEFEE726000200704700004F
:100300004EF68851CEF20001086840F47000086093
:100310007047000088B00020079043F63002C4F216
:100320000202116841F001011160116841F00201FF
:100330001160116841F0040111600022C4F2020250
:10034000009211681160116811600C23C4F202035D
:100350001860196841F480511960196819601168B2
:1003600041F001011160116841F00201116040F695
:100370000002C4F20202116841F08051116011685C
:10038000116040F20042C4F20202116841F480217F
:1003900011601168116043F64402C4F20202116850
:1003A00041F48071116042F21002C4F2010211683E
:1003B0001160116811601168116042F20432C4F2D8
:1003C0000102116841F4803111601168116042F23C
:1003D0003402C4F2010201921168116011681160C7
:1003E00011681160116811601168116042F22C02ED
:1003F000C4F2010202921168116011681160116863
:1004000011601168116042F20801C4F20101086034
:10041000086840F001000860FFE742F20800C4F2FB
:1004200001000068C00708B9FFE7F6E742F20801DB
:10043000C4F20101086840F002000860086840F05A
:1004400080400860FFE7FFE742F20000C4F20100CD
:1004500000688007002801D4FFE7F5E742F24C006E
:10046000C4F20100016840F26000C2F200000180A5
:100470000088B0F5487F49DDFFE71020C4F2020094
:1004800000684006002841D4FFE740F61401C4F29A
:100490000201086840F48040086040F21441C4F250
:1004A0000201086840F40070086000200690FFE731
:1004B00006984BF61F71C0F20201884205DCFFE787
:1004C000FFE7069801300690F2E740F61401C4F207
:1004D0000201086820F48040086040F21441C4F230
:1004E0000201086820F40070086000200590FFE712
:1004F000059847F23F71C0F21B01884205DCFFE717
:10050000FFE7059801300590F2E763E040F26000F4
:10051000C2F200000088B0F5487F49DDFFE71020F7
:10052000C4F2020000684006002841D5FFE740F60B
:100530001401C4F20201086840F48040086040F2EF
:100540001441C4F20201086820F400700860002021
:100550000490FFE7049847F23F71C0F21B01884204
:1005600005DCFFE7FFE7049801300490F2E740F272
:100570001441C4F20201086840F40070086040F6BB
:100580001401C4F20201086820F4804008600020D1
:100590000390FFE7039847F23F71C0F21B018842C6
:1005A00005DCFFE7FFE7039801300390F2E710E076
:1005B00040F21441C4F20201086820F4007008609F
:1005C00040F61401C4F20201086820F4804008607B
:1005D000FFE7FFE737E7F1EE100A4FF6FF71C0F2D1
:1005E000C03120EA010040F04070E1EE100A70478F
:1005F000000600080000002068060000FC0100085A
:0400000508000245A8
:00000001FF
